S01100004F474C5F4F475F76312E7372656336
S21400600020FDFF1FD962000019630000196300001D
S214006010000000000000000000000000000000007B
S21400602000000000000000000000000019630000EF
S2140060300000000000000000196300001963000063
S214006040196300001963000019630000196300005B
S21400605019630000196300001963000035DA0000B8
S2140060601963000019630000D5D90000E1D90000CB
S21400607085D9000091D900009DD900001963000061
S21400608019630000EDD90000F9D9000005DA000018
S21400609011DA0000196300001DDA000029DA00009A
S2140060A041DA00004DDA00001963000019630000B1
S2140060B01963000011E50000196300001963000071
S214006100FFFFFFFFFFFFFFFFFFFFFFFFFFFFFEFF9B
S21400620010B5064C2378002B07D1054B002B02D087
S214006210044800E000BF0123237010BD80F0FF1F7C
S21400622000000000D04F010008B5084B002B03D03B
S2140062300748084900E000BF07480368002B03D062
S214006240064B002B00D0984708BDC0460000000053
S214006250D04F010084F0FF1F7CF0FF1F00000000FD
S214006260164B002B00D1144B9D46402292029A1AE0
S214006270924600218B460F461348144A121A0DF018
S2140062804CFD0F4B002B00D098470E4B002B00D038
S21400629098470020002104000D000D48002802D079
S2140062A00C4800E000BF0DF009FD200029000DF0AD
S2140062B0A5FC0DF0EDFCC0460000080020FDFF1F09
S2140062C0000000000000000080F0FF1F20F5FF1F08
S2140062D0000000000000000072B6094809490A4A9A
S2140062E002600A600DF096FC62B60849084A094B3F
S2140062F09B1A03DD043BC858D050FBDCFFF7B0FF09
S21400630080E100E080E200E0FFFFFFFFF84F0100C1
S21400631000F0FF1F80F0FF1FFEE7C046002934D0C4
S2140063200123002210B488422CD301242407A14262
S21400633004D2814202D209011B01F8E7E400A1421F
S21400634004D2814202D249005B00F8E7884201D3BA
S214006350401A1A434C08A04202D3001B5C08224392
S2140063608C08A04202D3001B9C082243CC08A04203
S21400637002D3001BDC082243002803D01B0901D0EF
S2140063800909E3E7101C10BC7047002801D0002064
S214006390C04307B4024802A14018029003BDC0469D
S2140063A0190000000029F0D003B5FFF7B9FF0EBCB6
S2140063B04243891A1847C0467047C046000000008E
S2140063C038B50E4B0C4A041C0D1C01F0A5F900282C
S2140063D004D1201C291C01F0F9F838BD074B064AE9
S2140063E0201C291C00F0BEFD01F0F0F880231B06DF
S2140063F0C018F2E7C046C046000000000000E041BA
S214006400F8B55F46564644464D46F0B40C034D007C
S214006410CE0F610A440F2143C4001803804658007B
S214006420400D8246D80F84464046400A530F034329
S214006430D0006D0D371C83465246664500D1A4E059
S214006440AF1A002F00DC09E1002A3BD1184300D028
S214006450EAE0630700D187E00F232340042B00D136
S21400646082E0221DA242A4416442802309191B0433
S2140064700B40371C141C002B00D17CE0CE4B0135A2
S2140064809D4200D105E1CD4BE4081940480749027A
S21400649004430B0B002000211B031A0B0B0D6D058C
S2140064A01B0513436A08C64DFF071D4015436D00C4
S2140064B06D08291C3943201C3CBC90469946A246D0
S2140064C0AB46F8BDBC488542C3D0802000040343D9
S2140064D0382F00DDF0E01F2F00DD24E12020C01B58
S2140064E01A1C814682405846F84002439446584655
S2140064F04A469040421E9041FB40624602431F1CA3
S214006500A21A9442A4416442C91B091B141C0B0224
S2140065109FD549024F0A002F00D1C8E0381C01F071
S21400652005F9021C083A1F2A00DDB5E02821091AE1
S214006530201C9740C84007439440954200DDB2E0D7
S214006540551B691C1F2900DDDCE01F22551B3B1C68
S214006550221CAB40CA40AC40651EAC411343CF4042
S2140065601C43391C002574E780231B040B40371C92
S214006570002B00D082E7904B4807E4080443C90884
S2140065809D4248D009030B0B84E7AA1A9446002ABA
S21400659000DC98E05046002852D08748854200D15B
S2140065A057E78020000403436246382A00DDFCE0FB
S2140065B01F2A00DD4AE120226046101A1A1C82407B
S2140065C08246914658466246D0404A460243904626
S2140065D0584652469040421E90414246024360460C
S2140065E0C3401219A242A441644259180919141C46
S2140065F0080200D42DE7704B01359D4200D122E100
S2140066006E4B60081940012323401C1C0443CB0733
S2140066101C4349081DE7231C0B433AD080231B0369
S2140066200B431B031B0B35E7013F002F65D1584674
S214006630221A9442A4416442C91A091B141C66E734
S2140066405846184300D104E701225242944460465B
S214006650002800D0C5E058460219C3E7002F73D1C2
S214006660681C4005400D012800DCDEE05A46A21AF0
S2140066709442BF41C81A7F42C71B380200D489E043
S2140066805A46141BA3459241591A52428F1A66461F
S21400669041E700230024FDE6271C28388740002415
S2140066A0954200DC4CE74549AD1A3940D1E6201C3E
S2140066B001F03CF8203034E75A461A43531E9A41FC
S2140066C0D2B200271CE7002A00D0DCE0681C420596
S2140066D0520D012A00DC8DE0374DA84200D1F3E0D0
S2140066E05D462A19A242A441644259180919CC07EA
S2140066F0520814434908051CABE62F48854200D0D3
S214006700E6E6A6E62B1C1F3B3A1CDA40131C2029A3
S2140067106CD03F22551BAF403C43601E84411C4357
S2140067200021002595E6381C20381A1CC240101C93
S214006730202F5DD04022D71BBB405A461A43531E1B
S2140067409A4102430027DBE6002D3BD01A4DAA45AE
S21400675000D193E080252D047F422943382F00DDA9
S214006760ACE01F2F00DD29E12025ED1B081C261CB0
S214006770A840FE40AC400643651EAC413443F94099
S2140067805D462C1BA34592415B1A5242991A554608
S2140067906646BCE6131C3B43141C002B00D0BAE62E
S2140067A00027002100250024E5E65A461A43531E1A
S2140067B09A41D2B2002314E7FF070000FFFF7FFFD5
S2140067C0FFFF0F800D1C254358D0FF43002F51D1EB
S2140067D0041BA3459241591A5242891A55466646E9
S2140067E095E69648854200D0DEE632E6002793E737
S2140067F00023A2E7081C2043002D00D0C4E0002898
S21400680000D1F7E05846184300D122E65846021950
S214006810A242A441644259180919141C0A0200D461
S21400682017E6874B0125194013E6081C2043002D68
S21400683039D1002871D15946194303D0191C5C463A
S214006840664606E600270021002494E660462038C7
S2140068501A1CC24060469146202800D1ACE0402277
S214006860121A93405A461A43531E9A414B461A43ED
S2140068700023B6E6714DAA4500D06FE7191C5C46AA
S21400688055466646E5E5002D22D10D1C254377D0FA
S214006890D543002D71D15C445C4592415918524253
S2140068A089185546A4E600284DD15946194300D10B
S2140068B094E0191C5C466646604DCAE50C43611EB2
S2140068C08C41E4B200215BE7051C0021002452E65F
S2140068D05A4DAA4554D05542802210040143382D03
S2140068E000DD81E01F2D00DD92E02022501B0A1CF7
S2140068F084468240201CE84002439046624694400C
S214006900601E844142461443E9405C445C45924123
S214006910CB185242991855466AE65846184300D195
S21400692097E55846271ABC429241C81A5242801A26
S214006930020266D55846041BA3459241591A524294
S214006940891A664685E55846184333D04807E40852
S21400695004438020C9080003014208D0DD08054230
S21400696005D15946CA085C071443291C6646630FBE
S214006970C9001943E400314D6BE5304A9245AED16B
S214006980191C5C46554664E5002836D05846184320
S21400699010D080254807E408C9082D03044329427F
S2140069A0E5D0D8082842E2D15D46EA085C071443E1
S2140069B0011CDCE7214D4CE5002353E73D1C203D40
S2140069C00A1CEA40151C202F34D04026F71BB9407D
S2140069D00C43611E8C412C430021D1E68021002708
S2140069E0C903164D0024C6E50C43611E8C41E4B273
S2140069F000218AE7191C5C462BE5191C5C460F4DE6
S214006A0027E5031C3B4300D11CE7011C3C1C20E58A
S214006A102020404240190A1CC2409046202D0BD030
S214006A204020451BA9400C43611E8C4145462C4323
S214006A3000216AE70021CBE70021F4E7FF0700000A
S214006A40FFFF7FFFF0B5564644465F464D46F0B41E
S214006A501F1C0B031B0B9A464B0087B0041C80467A
S214006A605B0DC80F161C02938146002B68D0694B3D
S214006A700299994232D08022534652031A43D200DA
S214006A80630F1A439246644AE000891880460291D2
S214006A90002400253B031B0B9B467800FB0F321C93
S214006AA0400D039300D175E05A4B984269D080227E
S214006AB0594652030A43730FD2001A43564B934665
S214006AC0C018F200002303994E4671401C430F2C59
S214006AD000D9A9E0514EA4003459A74653461C439A
S214006AE000D087E00025AA46A84608240225D1E75C
S214006AF04946022D6CD0032D00D117E2012D00D09F
S214006B0058E10D40EDB20024A9460023A04600201F
S214006B10002125030A0D1C052D0B1205404B2A43A8
S214006B20134023435B004C465B08E207191C4046B3
S214006B30114307B03CBC90469946A246AB46F0BD12
S214006B405346234350D05346002B00D184E1504691
S214006B5000F0ECFD031E272B00DD76E128210D1A40
S214006B60211C083B5246E9409A400D1C1543221C46
S214006B709A40AA4690462B4B00241B1A02930025E7
S214006B8088E75B461E430323002E9CD1B3460022B3
S214006B90022398E75B46334321D05846002800D1AD
S214006BA04EE100F0C3FD272800DD42E128210F1A40
S214006BB0021C311C083A5B46F94093400F1C1F43E9
S214006BC0331C9340BB461A1C164B181A00237AE750
S214006BD001230B4000249946A0460E4B97E700275A
S214006BE0BB46002201236EE7002104248A4688461D
S214006BF001254FE70C2403254CE700258024A946F1
S214006C002403A846034B82E7DA46904603991D1CE8
S214006C106FE7C046FF07000001FCFFFFDC450100F0
S214006C20FFFF0F800DFCFFFF029F160C3818049024
S214006C304046070C0004000C1204120C031C5343BD
S214006C40041C3D1C7443554398463B1C734364190F
S214006C50A44644460293230C63449D4204D9029DF5
S214006C60802464022D1902951D0C039545462C04BC
S214006C701B04240C1C1905945C46230C051C584365
S214006C802404240C8446381C604365435F438146D5
S214006C90CC44280C6044BB46814502D980277F023D
S214006CA0BB442D04070C2D0C000440195546BC4669
S214006CB02F04E3448446280C3D0C2F1C5743B8464B
S214006CC02F1C77434243B94647463F0C9144BA4689
S214006CD0D14446434A4502D980225202B6184F464E
S214006CE03A0CB6183A0447463F043F0CB8462F1CE9
S214006CF067435D434443584365190190380C2D188B
S214006D004244B846AC4204D9019880235B02C018BE
S214006D100190039C029F201C6044C0196045A4415A
S214006D2047466442A4462B043C049946240C4C4433
S214006D30A046D8448018C246E24490429241574644
S214006D4052429146F219E245BF417F424B46BC464D
S214006D50D845BF41D4187F4263461F432D0C7F1988
S214006D60B24292414C45AD4152426D421543019E9E
S214006D707D19AB19E20D5B02059F134342023A43AD
S214006D809A46531E9A41C30D101C184364022043B2
S214006D9080465046C0010DD5454601225646049C05
S214006DA06B082A401A43F30701341A437608049402
S214006DB09046B246049E634FF319002B61DD4046B1
S214006DC040070BD00F2244462240042A06D04246F3
S214006DD00432424580414042824490465546ED0189
S214006DE007D5594B5646049F80201E40C000B24629
S214006DF03B18564A934200DDEAE644465546E2080A
S214006E006807104301226C025B050A408046240B8B
S214006E105B0D91467BE6DA4690461D1C69E68024AB
S214006E202403574627421CD13C432403240B484BDB
S214006E306DE6031C283B311C99408B460022C3E6B6
S214006E40301C00F073FC2030ADE6283B211C994036
S214006E5000228A4690468EE6201C00F067FC203012
S214006E6078E65846204207D1044303992403240BAE
S214006E7089469046364B4AE63C432403240B344B63
S214006E8045E6344B049E9B1B382B06DD01230B4046
S214006E9000249946A046002339E61F2B25DC049CD7
S214006EA02D4D46466019524644468640DC40824098
S214006EB05746301C2243DF40441EA04102433B1C81
S214006EC0540709D00F201040042805D0101D90420A
S214006ED0924152429B18021C1D021AD501230B40F8
S214006EE000249946A046012311E61C48049C5546FA
S214006EF0001BC540281C202B16D0194E5746A21939
S214006F0097403A1C43461A43531E9A4102430023B5
S214006F10D6E758075B02D2081C0B01230B40104330
S214006F20994680460023F2E50022EBE780242403FE
S214006F3050460123044319402403240B8946044B7E
S214006F40E5E5C046FF030000FFFFFFFEFE0700006A
S214006F50FF07000002FCFFFF1E040000E2FBFFFF2D
S214006F603E040000F8B55F46564644464D46F0B42B
S214006F700C034D00CF0F610A440F2143C4001803D1
S214006F80DE0F8046B44646465800760A530F334313
S214006F90D600D14A6D0DBA46400DB346904200D198
S214006FA0F5E06246012672409446674500D1ABE0A4
S214006FB02F1A002F00DC11E100283ED15846184356
S214006FC000D0F1E0600700D197E00F232340042BA8
S214006FD000D122E1221DA242A44164428023091965
S214006FE01B04012750460B400740141C002B00D101
S214006FF079E0B94B01359D4200D10BE1B74BE4086F
S21400700019404807490204430B0B002000211B03CC
S2140070101A0B0B0D6D051B0513436A08B04DFF07D1
S2140070201D4015436D006D08291C3943201C3CBCCF
S21400703090469946A246AB46F8BDA7488542C1D0C1
S214007040802000040343382F00DDFDE01F2F00DD05
S21400705031E12020C01B1A1C5E468240FE403243AF
S21400706094465A468240101C421E9041FB4062469F
S21400707002431F1CA21A9442A4416442C91B091B66
S214007080141C0A029ED549024F0A002F00D1D6E0F2
S214007090381C00F04BFB021C083A1F2A00DDC3E038
S2140070A02821231C091A9740CB401F439440954241
S2140070B000DDC0E0551B691C1F2900DDEAE01F2229
S2140070C0551B3B1C221CAB40CA40AC40651EAC4165
S2140070D01343CF401C43391C002573E780217E4DA7
S2140070E00027C90300247C4B4807E4080443C9086A
S2140070F09D4250D009030B0B87E780231B04012712
S21400710052460B40174071E72A1A9446002A00DCC4
S214007110A1E0002854D07048854200D152E7802074
S214007120000403436046382800DD0EE11F2800DD1A
S21400713057E162462020801A1E1C8640B1465E46F5
S214007140D6404A4632435E4686409046301C421E33
S2140071509041424602436046C3401219A242A441EF
S214007160644259180919141C080200D42AE75A4B1D
S21400717001359D4200D131E1584B6008194001238A
S21400718023401C1C0443CB071C4349081AE71E4334
S21400719000D00AE705E7231C0B433BD080231B03E4
S2140071A00B431B031B0B30E7013F002F6DD15E46E0
S2140071B0A21B9442A4416442C91A091B141C60E72E
S2140071C05846184300D1FDE601267642B444604690
S2140071D0002800D0D0E05E463219BFE7002F00D06E
S2140071E080E0681C4005400D012800DCE8E05A46B7
S2140071F0A21A9442BF41C81A7F42C71B3E0200D45F
S21400720098E05846041BA3459241591A52428F1AD9
S214007210E2463AE700230024F7E680231B04012712
S21400722056460B403740E1E6271C283887400024A6
S214007230954200DC3EE72949AD1A3940C2E6201CDB
S21400724000F074FA203026E75A461A43531E9A4135
S214007250D2B200270EE7002A00D0DEE0681C460502
S214007260760D012E00DC90E01B4DA84200D1F5E023
S2140072705E463219A242A441644259180919CC0745
S214007280520814434908051C9CE61348854200D062
S214007290D9E697E62B1C1F3B3E1CDE40331C2029FC
S2140072A06FD03F22551BAF403C43601E84411C43B9
S2140072B00021002586E6381C20381E1CC640301CDF
S2140072C0202F60D04022D71BBB405A461A43531E7D
S2140072D09A4102430027CDE6FF070000FFFF7FFF2D
S2140072E0FFFF0F80002D37D0B64DA84200D18FE0AB
S2140072F080252D047F422943382F00DDA8E01F2F6C
S21400730000DD24E12025ED1B0E1CAE40B046261CF9
S214007310FE404246AC401643651EAC413443F9403D
S2140073205A46141BA34592415B1A5242991A051CF1
S214007330E246A6E6131C3B43141C002B00D0A4E632
S2140073400027002100250024CDE65A461A43531E86
S2140073509A41D2B2002300E70D1C254358D0FF43C4
S214007360002F51D15A46141BA3459241591A524236
S214007370891A051CE24684E69248854200D0D1E68A
S21400738020E6002790E700239FE7081C2043002DF7
S21400739000D0C2E0002800D1EFE05846184300D1E4
S2140073A010E658460219A242A44164425918091927
S2140073B0141C0A0200D405E6834B0125194001E699
S2140073C0081C2043002D38D100286FD15946194398
S2140073D003D0191C5C46E246F4E500270021002491
S2140073E081E6604620381A1CC2406646101C202ED5
S2140073F000D1AAE04022921B93405A461A43531EDD
S2140074009A4102430023A8E66E4DA84200D073E7D7
S214007410191C5C46051CE246D4E5002D22D10D1C45
S214007420254376D0D543002D70D15C445C4592410F
S214007430591852428918051C96E600284CD1594620
S214007440194300D14AE6191C5C46E2465D4DB9E593
S2140074500C43611E8C41E4B2002161E7051C00214B
S214007460002440E6574DA84253D0554280221604C9
S2140074703143382D7BDC1F2D00DD8CE02022561B8F
S2140074800A1CB446B240261CEE4032439046624682
S2140074909440661EB44142461443E9405C445C4551
S2140074A09241CB1852429918051C5DE6584618437F
S2140074B000D187E55E46A71BBC429241C81A5242DD
S2140074C0801A060260D55846041BA3459241591AF5
S2140074D05242891AE24675E55846184333D04807A3
S2140074E0E40804438020C9080003014208D0DD08F0
S2140074F0054205D15946CA085C071443291CE246D2
S214007500630FC9001943E4002E4D5BE52D4A9042F7
S214007510AFD1191C5C46051C54E5002830D05846EF
S214007520184310D080254807E408C9082D030443F3
S2140075302942E5D0D8082842E2D15D46EA085C0731
S2140075401443011CDCE71F4D3CE5002355E73D1CBA
S214007550203D0E1CEE40351C202F2ED04026F71B5B
S214007560B9400C43611E8C412C430021D8E60C43E5
S214007570611E8C41E4B2002190E7191C5C4621E5AF
S214007580191C5C460F4D1DE5031C3B4300D124E748
S214007590011C3C1C16E52026764276190A1CF24091
S2140075A09046202D0BD04026751BA9400C43611E2B
S2140075B08C4145462C43002170E70021D1E700218D
S2140075C0F4E7C046FF070000FFFF7FFF70B50B1C07
S2140075D0124C09030E0B5900021C490DDD0F00204A
S2140075E0A14211DD0E4881420FDC80204003064395
S2140075F00C48401A1F280BDD0B4A521AD640321C84
S2140076005042002D00D1101C70BD084BE818FBE757
S214007610074BC240C9188E403243F1E7FE03000014
S2140076201D0400003304000013040000FFFFFF7F6A
S214007630EDFBFFFFF8B5041E31D0C70F00D0444263
S214007640201C00F073F8184D2D1A0A2819DD0B3887
S214007650844024036D05240B6D0D3A1C0026002083
S21400766000210B0D2403240B1B0523430F4C2D0573
S2140076701C402C4364006408D307211C301C1943AB
S214007680F8BD061C1536231CB3401E1C0B23181A07
S214007690C44024036D05240B6D0D3A1CDFE7002261
S2140076A0002500240026DAE71E040000FFFF0F80F6
S2140076B08446101C62468C46191C634600E0C04691
S2140076C01FB500F019F9002801D40021C8421FBDDB
S2140076D010B500F049F84042013010BD10B500F07A
S2140076E00BF9002801DB002010BD012010BDC046AC
S2140076F010B500F001F9002801DD002010BD0120C2
S21400770010BDC04610B500F079F8002801DC002056
S21400771010BD012010BDC04610B500F06FF800285F
S21400772001DA002010BD012010BDC0461C21012337
S2140077301B04984201D3000C10391B0A984201D34F
S214007740000A08391B09984201D30009043902A22D
S214007750105C40187047C046040302020101010194
S2140077600000000000000000F0B55F4656464D469B
S2140077704446F0B40D1C041C8046E80F81461803EE
S2140077800F03000B3F0B83B084461B48009749004D
S2140077905E00DF0F490D9246760DBB4681420CD047
S2140077A01548864210D00120B14215D003B03CBC2B
S2140077B090469946A246AB46F0BD009F012027435F
S2140077C0F4D10D488642EED1604602430120002ADD
S2140077D0ECD10120B142E9D1009B6345E6D1D0450A
S2140077E0E4D1D94506D00029E0D11C43201C441E14
S2140077F0A041DBE70020D9E7FF070000F0B55F46B1
S21400780056464D464446F0B4CD0FDE0FAC461D033B
S2140078102D0BB146374E0F034C00AB465D0080463D
S2140078203F0B640D92466D0DB44232D0314EB542D8
S21400783035D0002C0ED1384341424141081C002D62
S2140078400BD0002919D1CC452DD0654668420123BE
S214007850184318E0002DF6D1281C59460A43534217
S2140078605341002806D1002BEDD063465842012331
S214007870184308E00020002B05D14A4650425041EC
S2140078804042012318433CBC90469946A246AB466C
S214007890F0BD3E1C0643C9D002204042F3E75E46D8
S2140078A01643C6D0F8E7AC4207DC0BDA614648421E
S2140078B04841404201231843E5E7664670420123EB
S2140078C01843E0E75F450AD80ED000205F45DAD2BD
S2140078D0654668426841404201231843D3E7624642
S2140078E0504201231843CEE7D045F8D80020D045B3
S2140078F0EED3C8E7FF070000F0B556464D464446AF
S2140079005F46F0B40D1C83B0041C0190E80F81465E
S21400791018030F03000B3F0B8446354800974900B9
S2140079205E00DF0F490D9246760DB846814234D090
S2140079302F48864236D0002918D0002E1FD1341C7E
S21400794067463A4353425341002C1FD00020002B79
S21400795005D142465042504140420123184303B0ED
S2140079603CBC90469946A246AB46F0BD0098044300
S21400797060426041041C002EE2D00028E9D1C145D7
S21400798015D04F46784201231843E8E7002BF6D07F
S2140079904B46584201231843E1E7009F0220274345
S2140079A0DDD1C5E7674602201743D8D1C3E7B14209
S2140079B004DD4A46504201231843D0E7B14207DBB4
S2140079C000986045E4D80AD0009F00206745C6D2DC
S2140079D04F4678427841404201231843BFE7019A58
S2140079E05245D5D8019A00205245F1D3B7E7C04694
S2140079F0FF07000080B590B000AF3A1C0B4B111C7F
S214007A001A1C4023081C111C1A1C0CF07DF93B1C88
S214007A10181C07F00BFF031C002B01D0012300E00D
S214007A200023181CBD4610B080BDC046303D010086
S214007A30F0B5474680B48CB000AFF8606846804624
S214007A40381C2F302D22944663460370381C2E3087
S214007A500424A44662460270381C183000239C4654
S214007A606446046000229446634643600024A446AD
S214007A7062468260381C183001239C4664460470B7
S214007A80381C18300A22944663464370381C183057
S214007A905024A44662468270381C1830494B9C46D7
S214007AA064460481381C18300122944663465B42C3
S214007AB09C4664464481381C18304078844601222F
S214007AC0524294446346BB62011C0024A4466246AC
S214007AD04B0F9C46D4007C6063467C6823437B60E7
S214007AE0CB00031C0022141C5A0FE6001643DD00D0
S214007AF0031C0733DB08DB006C46E41AA5466B461E
S214007B0000337B627B6A3A1C1832101C191C002258
S214007B1001F00CFC021C3B1C2E331A703B1C2E334F
S214007B201B78002B47D13B1C2E3304221A70264BA1
S214007B3001221A707B6A1A78244B9A717B6A5A78EB
S214007B40224BDA717B6A9A78204B1A727B6ADA7853
S214007B501E4B5A721D4B08229A721C4B28221A7012
S214007B60796A3B1C18331B783A1C1432081C111C0B
S214007B701A1C09F05DFA3B1C14331A88134B5A8002
S214007B803B1C14339A78114B5A703B1C1433DB7829
S214007B901A1C0E4B9A800D4BA022DA727B6A9B79D8
S214007BA0DBB25BB2002B06DA084BDB7A10221343FB
S214007BB0DAB2064BDA72C546BD460CB004BC904637
S214007BC0F0BDC0462110000090F3FF1F18F1FF1F04
S214007BD080B590B000AF3A1C0B4B111C1A1C40230A
S214007BE0081C111C1A1C0CF08FF83B1C181C07F004
S214007BF01DFE031C002B01D0012300E00023181CEF
S214007C00BD4610B080BDC046703D0100F0B5474689
S214007C1080B48CB000AFF86068468046381C2F30C1
S214007C202D22944663460370381C2E300424A44646
S214007C3062460270381C183000239C466446046076
S214007C4000229446634643600024A446624682604F
S214007C50381C183002239C4664460470381C1830C2
S214007C600A22944663464370381C18305024A446B3
S214007C7062468270381C1830444B9C466446048129
S214007C80381C183040788446012252429444634699
S214007C90BB62011C0024A44662464B0F9C46D400DF
S214007CA07C6063467C6823437B60CB00031C002219
S214007CB0141C5A0FE6001643DD00031C0733DB08CE
S214007CC0DB006C46E41AA5466B4600337B627B6A93
S214007CD03C1C2E343A1C1832101C191C002201F0D1
S214007CE025FB031C23703B1C2E331B78002B47D12F
S214007CF03B1C2E3304221A70254B01221A707B6A15
S214007D001A78244B9A717B6A5A78224BDA717B6A0E
S214007D109A78204B1A727B6ADA781E4B5A721D4B81
S214007D2008229A721B4B28221A70796A3B1C183359
S214007D301B783A1C1432081C111C1A1C09F078F91E
S214007D403B1C14331A88134B5A803B1C14339A7806
S214007D50104B5A703B1C1433DB781A1C0D4B9A8060
S214007D600C4BA022DA727B6A9B79DBB25BB2002BEB
S214007D7006DA084BDB7A10221343DAB2054BDA72C6
S214007D80C546BD460CB004BC9046F0BD21100000B0
S214007D9090F3FF1F18F1FF1F80B590B000AF3A1C9C
S214007DA00B4B111C1A1C4023081C111C1A1C0BF030
S214007DB0ABFF3B1C181C07F039FD031C002B01D041
S214007DC0012300E00023181CBD4610B080BDC0464D
S214007DD0B03D0100F0B5474680B48CB000AFF86007
S214007DE068468046381C2F3004229446634603704B
S214007DF0381C18300024A4466246026000239C46C5
S214007E00644644600022944663468360381C1830FB
S214007E100324A44662460270381C18300B239C4686
S214007E2064464470381C1830582294466346837063
S214007E30381C18308724A4466246C270381C183096
S214007E40444B9C4664460481381C1830407884466F
S214007E500122524294446346BB62011C0024A4469D
S214007E6062464B0F9C46D4007C6063467C68234386
S214007E707B60CB00031C0022141C5A0FE60016433E
S214007E80DD00031C0733DB08DB006C46E41AA5465E
S214007E906B4600337B627B6A3C1C2F343A1C1832DC
S214007EA0101C191C042201F041FA031C23703B1C11
S214007EB02F331B78002B47D13B1C2F3304221A701C
S214007EC0254B01221A707B6A1A78244B9A717B6ABA
S214007ED05A78224BDA717B6A9A78204B1A727B6A40
S214007EE0DA781E4B5A721D4B08229A721B4B2822B8
S214007EF01A70796A3B1C18331B783A1C1432081C1B
S214007F00111C1A1C09F094F83B1C14331A88134BE6
S214007F105A803B1C14339A78104B5A703B1C14330F
S214007F20DB781A1C0D4B9A800C4BA022DA727B6A07
S214007F309B79DBB25BB2002B06DA084BDB7A1022A9
S214007F401343DAB2054BDA72C546BD460CB004BC24
S214007F509046F0BD2110000090F3FF1F18F1FF1FA0
S214007F6080B590B000AF3A1C0B4B111C1A1C3E2378
S214007F70081C111C1A1C0BF0C7FE3B1C181C07F033
S214007F8055FC031C002B01D0012300E00023181C25
S214007F90BD4610B080BDC046F03D0100F0B5474676
S214007FA080B48CB000AFF86068468046381C2F302E
S214007FB00422944663460370381C18300024A446F6
S214007FC06246026000239C46644644600022944653
S214007FD063468360381C18300424A4466246027048
S214007FE0381C18300B239C4664464470381C1830E6
S214007FF05822944663468370381C18308724A4465B
S2140080006246C270381C1830444B9C466446048155
S214008010381C183040788446012252429444634605
S214008020BB62011C0024A44662464B0F9C46D4004B
S2140080307C6063467C6823437B60CB00031C002285
S214008040141C5A0FE6001643DD00031C0733DB083A
S214008050DB006C46E41AA5466B4600337B627B6AFF
S2140080603C1C2F343A1C1832101C191C042201F038
S2140080705DF9031C23703B1C2F331B78002B47D164
S2140080803B1C2F3304221A70254B01221A707B6A80
S2140080901A78244B9A717B6A5A78224BDA717B6A7B
S2140080A09A78204B1A727B6ADA781E4B5A721D4BEE
S2140080B008229A721B4B28221A70796A3B1C1833C6
S2140080C01B783A1C1432081C111C1A1C08F0B0FF4E
S2140080D03B1C14331A88134B5A803B1C14339A7873
S2140080E0104B5A703B1C1433DB781A1C0D4B9A80CD
S2140080F00C4BA022DA727B6A9B79DBB25BB2002B58
S21400810006DA084BDB7A10221343DAB2054BDA7232
S214008110C546BD460CB004BC9046F0BD211000001C
S21400812090F3FF1F18F1FF1F80B590B000AF3A1D07
S2140081300B4B111C1A1C3C23081C111C1A1C0BF0A0
S214008140E3FD3B1D181C07F071FB031C002B01D040
S214008150012300E00023181CBD4610B080BDC046B9
S214008160303E0100F0B5474680B48CB000AFF860F2
S21400817068468046381C2F300422944663460370B7
S214008180381C18300024A4466246026000239C4631
S214008190644644600022944663468360381C183068
S2140081A00624A44662460270381C18300B239C46F0
S2140081B064464470381C18305822944663468370D0
S2140081C0381C18308824A4466246C270381C183002
S2140081D001239C4664460471381C18302F229446AE
S2140081E063464371381C1830AA24A446624682713E
S2140081F0381C18304078844601235B429C44644611
S214008200BC62011C00239C4662464C0FA446D30069
S2140082107B6064467B681C437C60CC00031C0022A9
S214008220141C5A0FE6001643DD00031C0733DB0858
S214008230DB006A46D21A95466B4600337B627B6A41
S2140082403C1C2F343A1C1832101C191C002201F05A
S2140082506DF8031C23703B1C2F331B78002B4BD16F
S2140082603B1C2F3304221A707B6A1B78882B43D161
S214008270244B01221A707B6A5A78234B9A717B6AC8
S2140082809A78214BDA717B6ADA781F4B1A727B6A0E
S2140082901A791D4B5A721C4B08229A721A4B3422BA
S2140082A01A70796A3B1C18331B783A1C1432081C67
S2140082B0111C1A1C08F0BCFE3B1C14331A88124B07
S2140082C05A803B1C14339A780F4B5A703B1C14335D
S2140082D0DB781A1C0C4B9A800B4BA022DA727B6A56
S2140082E0DB79DBB25BB2002B06DA074BDB7A1022B7
S2140082F01343DAB2044BDA72C546BD460CB004BC72
S2140083009046F0BD90F3FF1F18F1FF1F80B590B0A8
S21400831000AF3A1C0B4B111C1A1C3E23081C111CE8
S2140083201A1C0BF0F1FC3B1C181C07F07FFA031C10
S214008330002B01D0012300E00023181CBD4610B01E
S21400834080BDC0466C3E0100F0B593B000AFF8614A
S2140083506B461E1C3B1C383300221A703B1C3833FD
S21400836005225A703A1C3432574B111C1A1C022331
S214008370081C111C1A1C0BF0C7FC3B1C47330422BC
S2140083801A703B1C283300221A6000225A60002212
S2140083909A603B1C283307221A703B1C28330A229B
S2140083A05A703B1C283350229A703B1C28335C22A0
S2140083B0DA703B1C283301221A713B1C2833072233
S2140083C05A713B1C28335B781A1C013A3A643B61AD
S2140083D000227A6139694A0F7969C900F960F9683B
S2140083E01143F9603A69D2001C1C0022151C620F6A
S2140083F0E9007960796811437960E2000733DB08A9
S214008400DB006946C91A8D466B460033FB63FB6B7F
S2140084103C1C47343A1C2832101C191C002200F061
S21400842085FF031C23703B1C47331B78002B47D16A
S2140084303B1C473304221A70244B01221A70FB6B34
S2140084405A78234B9A71FB6B9A78214BDA71FB6B47
S214008450DA781F4B1A72FB6B1A791D4B5A721C4B3B
S21400846008229A721A4B32221A70F96B3B1C283378
S2140084701B783A1C2432081C111C1A1C08F0D8FD64
S2140084803B1C24331A88124B5A803B1C24339A78A0
S2140084900F4B5A703B1C2433DB781A1C0C4B9A800B
S2140084A00B4BA022DA72FB6B5B791A1C0423134079
S2140084B006D1074BDB7A10221343DAB2044BDA728A
S2140084C0B546BD4613B0F0BDAC3E010090F3FF1FAD
S2140084D018F1FF1F80B590B000AF3A1D0B4B111C72
S2140084E01A1C3C23081C111C1A1C0BF00DFC3B1D0F
S2140084F0181C07F09BF9031C002B01D0012300E099
S2140085000023181CBD4610B080BDC046B03E01001A
S214008510F0B593B000AFF8616B461E1C3A1C3832BB
S214008520594B111C1A1C0223081C111C1A1C0BF098
S214008530EBFB3A1C3432554B111C1A1C0423081C46
S214008540111C1A1C0BF0E0FB3B1C473304221A706C
S2140085503B1C283300221A6000225A6000229A60D0
S2140085603B1C283308221A703B1C28330A225A70F8
S2140085703B1C283350229A703B1C2833D022DA70DA
S2140085803B1C28335B781A1C013A3A643B61002294
S2140085907A6139694A0F7969C900F960F968114347
S2140085A0F9603A69D2001C1C0022151C620FE90013
S2140085B07960796811437960E2000733DB08DB00F5
S2140085C06946C91A8D466B460033FB63FB6B3C1C41
S2140085D047343A1C2832101C191C002200F0A6FE54
S2140085E0031C23703B1C47331B78002B47D13B1CD6
S2140085F0473304221A70264B01221A70FB6B5A78F6
S214008600244B9A71FB6B9A78224BDA71FB6BDA7803
S214008610204B1A72FB6B1A791E4B5A721D4B08229E
S2140086209A721C4B32221A70F96B3B1C28331B784B
S2140086303A1C2432081C111C1A1C08F0F9FC3B1CBE
S21400864024331A88134B5A803B1C24339A78114BD8
S2140086505A703B1C2433DB781A1C0E4B9A800D4B49
S214008660A022DA72FB6B5B791A1C0423134006D136
S214008670084BDB7A10221343DAB2064BDA72B546A1
S214008680BD4613B0F0BDC046EC3E0100F03E010012
S21400869090F3FF1F18F1FF1F80B590B000AF3A1C93
S2140086A00B4B111C1A1C3E23081C111C1A1C0BF029
S2140086B02BFB3B1C181C07F0B9F8031C002B01D041
S2140086C0012300E00023181CBD4610B080BDC04644
S2140086D0F43E0100F0B5474680B48EB000AFF860B7
S2140086E068468046381C283000229446634603704D
S2140086F0381C28300524A44662464270381C2430B4
S214008700FF239C4664460470381C2430002294469E
S21400871063464370381C37300424A4466246027011
S214008720381C183000239C46644604600022944699
S214008730634643600024A44662468260381C1830B4
S2140087400A239C4664460470381C18300822944657
S21400875063464370381C18304024A4466246827034
S214008760381C1830C0239C466446C470381C183029
S2140087700122944663460371381C18300724A44629
S21400878062464271381C18304078844601235B42AA
S2140087909C4464463C63011C00239C4662464C0F86
S2140087A0A446D3007B6064467B681C437C60CC0098
S2140087B0031C0022141C5A0FE6001643DD00031C9F
S2140087C00733DB08DB006A46D21A95466B46003351
S2140087D0FB62FB6A3C1C37343A1C1832101C191C0E
S2140087E0062200F0A3FD031C23703B1C37331B78C6
S2140087F0002B47D1264B01221A703B1C373304222C
S2140088001A70FB6A9A78234B9A71FB6ADA78214BC6
S214008810DA71FB6A1A791F4B1A72FB6A5A791D4B7A
S2140088205A721C4B08229A721A4B32221A70F96A34
S2140088303B1C18331B783A1C1432081C111C1A1CDB
S21400884008F0F6FB3B1C14331A88124B5A803B1C6C
S21400885014339A780F4B5A703B1C1433DB781A1C6F
S2140088600C4B9A800B4BA022DA72FB6A9B791A1C7F
S2140088700223134006D1074BDB7A10221343DAB2E9
S214008880044BDA72C546BD460EB004BC9046F0BD39
S21400889090F3FF1F18F1FF1F80B590B000AF3A1D90
S2140088A00B4B111C1A1C3C23081C111C1A1C0BF029
S2140088B02BFA3B1D181C06F0B9FF031C002B01D039
S2140088C0012300E00023181CBD4610B080BDC04642
S2140088D0343F0100F0B593B000AFF8616B461E1C44
S2140088E03A1C3832574B111C1A1C0223081C111C48
S2140088F01A1C0BF009FA3A1C3432534B111C1A1C82
S2140089000223081C111C1A1C0BF0FEF93B1C4733F3
S21400891004221A703B1C283300221A6000225A6078
S21400892000229A603B1C28330B221A703B1C28330B
S21400893008225A703B1C283340229A703B1C28336E
S2140089405B781A1C013A3A643B6100227A61396905
S2140089504A0F7969C900F960F9681143F9603A6904
S214008960D2001C1C0022151C620FE9007960796891
S21400897011437960E2000733DB08DB006946C91A59
S2140089808D466B460033FB63FB6B3C1C47343A1C3E
S2140089902832101C191C002200F0C8FC031C23708F
S2140089A03B1C47331B78002B47D13B1C4733042224
S2140089B01A70264B01221A70FB6B1A78244B9A7198
S2140089C0FB6B5A78224BDA71FB6B9A78204B1A7243
S2140089D0FB6BDA781E4B5A721D4B08229A721C4BA0
S2140089E038221A70F96B3B1C28331B783A1C243249
S2140089F0081C111C1A1C08F01BFB3B1C24331A888D
S214008A00134B5A803B1C24339A78114B5A703B1CEC
S214008A102433DB781A1C0E4B9A800D4BA022DA7298
S214008A20FB6B9B79DBB25BB2002B06DB084BDB7A79
S214008A3010221343DAB2064BDA72B546BD4613B0BF
S214008A40F0BDC046703F0100743F010090F3FF1F69
S214008A5018F1FF1F80B590B000AF3A1C0B4B111CED
S214008A601A1C3E23081C111C1A1C0BF04DF93B1C4B
S214008A70181C06F0DBFE031C002B01D0012300E0CF
S214008A800023181CBD4610B080BDC046783F0100CC
S214008A90F0B5474680B48CB000AFF86068468046B4
S214008AA0381C2F300422944663460370381C183056
S214008AB00024A4466246026000239C466446446046
S214008AC00022944663468360381C18300C24A44663
S214008AD062460270381C183008239C466446447070
S214008AE0381C18304022944663468370381C183071
S214008AF00124A44662460271381C183007239C469F
S214008B0064464471381C183040788446012252422C
S214008B1094446346BB62011C0024A44662464B0F85
S214008B209C46D4007C6063467C6823437B60CB0015
S214008B30031C0022141C5A0FE6001643DD00031C1B
S214008B400733DB08DB006C46E41AA5466B460033A9
S214008B507B627B6A3C1C2F343A1C1832101C191C92
S214008B60002200F0E3FB031C23703B1C2F331B7812
S214008B70002B47D13B1C2F3304221A70244B0122B2
S214008B801A707B6A9A78234B9A717B6ADA78214B43
S214008B90DA717B6A1A791F4B1A727B6A5A791D4BF7
S214008BA05A721C4B08229A721A4B32221A70796A31
S214008BB03B1C18331B783A1C1432081C111C1A1C58
S214008BC008F036FA3B1C14331A88124B5A803B1CAA
S214008BD014339A780F4B5A703B1C1433DB781A1CEC
S214008BE00C4B9A800B4BA022DA727B6A9B791A1C7C
S214008BF00223134006D1074BDB7A10221343DAB266
S214008C00044BDA72C546BD460CB004BC9046F0BDB7
S214008C1090F3FF1F18F1FF1F80B590B000AF3A1C0D
S214008C200B4B111C1A1C4023081C111C1A1C0BF0A1
S214008C306BF83B1C181C06F0F9FD031C002B01D03A
S214008C40012300E00023181CBD4610B080BDC046BE
S214008C50B83F0100F0B5474680B48CB000AFF8606E
S214008C6068468046381C2F300422944663460370BC
S214008C70381C18300024A4466246026000239C4636
S214008C80644644600022944663468360381C18306D
S214008C900D24A44662460270381C18300A239C46EF
S214008CA064464470381C18305022944663468370DD
S214008CB0381C1830414CA44662460281381C1830D5
S214008CC0FF239C4664466400A44662464281381CE4
S214008CD018304078844601235B429C446446BC625C
S214008CE0011C00239C4662464C0FA446D3007B60C2
S214008CF064467B681C437C60CC00031C0022141C6A
S214008D005A0FE6001643DD00031C0733DB08DB00C2
S214008D106A46D21A95466B4600337B627B6A3C1CD9
S214008D202F343A1C1832101C191C002200F0FEFAD0
S214008D30031C23703B1C2F331B78002B37D13B1CA6
S214008D402F3304221A701E4B01221A707B6A1A787F
S214008D501C4B9A717B6A5A781A4BDA717B6A9A783E
S214008D60184B1A727B6ADA78164B5A72154B082221
S214008D709A72144B28221A70796A3B1C18331B7897
S214008D803A1C1432081C111C1A1C08F051F93B1C22
S214008D9014331A880B4B5A803B1C14339A78094BB1
S214008DA05A703B1C1433DB781A1C064B9A80C54657
S214008DB0BD460CB004BC9046F0BDC0462110000075
S214008DC090F3FF1F18F1FF1F80B590B000AF3A1D5B
S214008DD00B4B111C1A1C3C23081C111C1A1C0AF0F5
S214008DE093FF3B1D181C06F021FD031C002B01D031
S214008DF0012300E00023181CBD4610B080BDC0460D
S214008E00F83F0100F0B593B000AFF8616B461E1C4A
S214008E103A1C3832564B111C1A1C0223081C111C13
S214008E201A1C0AF071FF3A1C3432524B111C1A1CE1
S214008E300223081C111C1A1C0AF066FF3B1C473351
S214008E4003221A703B1C283300221A6000225A6044
S214008E5000229A603B1C283311221A703B1C2833D0
S214008E6009225A703B1C283348229A703B1C283330
S214008E702622DA703B1C283301221A713B1C283349
S214008E8007225A713B1C28335B781A1C013A3A6455
S214008E903B6100227A6139694A0F7969C900F96035
S214008EA0F9681143F9603A69D2001C1C0022151CAF
S214008EB0620FE9007960796811437960E200073350
S214008EC0DB08DB006946C91A8D466B460033FB6338
S214008ED0FB6B3C1C47343A1C2832101C191C07221A
S214008EE000F024FA031C23703B1C47331B78002B2E
S214008EF03AD1214B01221A703B1C473304221A70C8
S214008F00FB6B1A781D4B9A71FB6B5A781B4BDA7108
S214008F10FB6B9A78194B1A72FB6BDA78174B5A72FE
S214008F20164B08229A72154B37221A70F96B3B1CA7
S214008F3028331B783A1C2432081C111C1A1C08F013
S214008F4077F83B1C24331A880C4B5A803B1C24337E
S214008F509A780A4B5A703B1C2433DB781A1C074B52
S214008F609A80064B8022DA72B546BD4613B0F0BD35
S214008F70344001003840010090F3FF1F18F1FF1F36
S214008F8080B590B000AF3A1D0B4B111C1A1C3C2349
S214008F90081C111C1A1C0AF0B7FE3B1D181C06F014
S214008FA045FC031C002B01D0012300E00023181C05
S214008FB0BD4610B080BDC0463C400100F0B593B041
S214008FC000AFF8616B461E1C3A1C38325F4B111C12
S214008FD01A1C0223081C111C1A1C0AF095FE3A1CC7
S214008FE034325B4B111C1A1C0423081C111C1A1C5F
S214008FF00AF08AFE3B1C473304221A703B1C2833B7
S21400900000221A6000225A6000229A603B1C283315
S21400901012221A703B1C28330A225A703B1C283333
S21400902050229A703B1C28332022DA703B1C2833CF
S21400903001221A713B1C283307225A713B1C283325
S214009040AA229A713B1C28335B781A1C013A3A64B0
S2140090503B6100227A6139694A0F7969C900F96073
S214009060F9681143F9603A69D2001C1C0022151CED
S214009070620FE9007960796811437960E20007338E
S214009080DB08DB006946C91A8D466B460033FB6376
S214009090FB6B3C1C47343A1C2832101C191C00225F
S2140090A000F044F9031C23703B1C47331B78002B4D
S2140090B047D13B1C473304221A70264B01221A70F4
S2140090C0FB6B5A78244B9A71FB6B9A78224BDA71B9
S2140090D0FB6BDA78204B1A72FB6B1A791E4B5A72AE
S2140090E01D4B08229A721C4B32221A70F96B3B1CDD
S2140090F028331B783A1C2432081C111C1A1C07F053
S21400910097FF3B1C24331A88134B5A803B1C24338E
S2140091109A78114B5A703B1C2433DB781A1C0E4B82
S2140091209A800D4BA022DA72FB6B5B791A1C042323
S214009130134006D1084BDB7A10221343DAB2064BF3
S214009140DA72B546BD4613B0F0BDC04678400100A1
S2140091507C40010090F3FF1F18F1FF1F80B590B010
S21400916000AF3A1D0B4B111C1A1C3A23081C111C8D
S2140091701A1C0AF0C9FD3B1D181C06F057FB031C01
S214009180002B01D0012300E00023181CBD4610B0C0
S21400919080BDC04680400100F0B5474680B48CB024
S2140091A000AFF86068468046381C2F30042294468C
S2140091B063460370381C18300024A44662460260DA
S2140091C000239C46644644600022944663468360BF
S2140091D0381C18306D24A44662460270381C1830BD
S2140091E00B239C4664464470381C18304E22944626
S2140091F063468370381C18300724A44662464271C2
S214009200381C18304078844601235B429C446446F0
S214009210BC62011C00239C4662464C0FA446D30049
S2140092207B6064467B681C437C60CC00031C002289
S214009230141C5A0FE6001643DD00031C0733DB0838
S214009240DB006A46D21A95466B4600337B627B6A21
S2140092503A1C1832101C191C002200F067F8021C79
S2140092603B1C2F331A703B1C2F331B78002B53D11B
S2140092707B6A1B7A1A1C082313404DD07B6A1B7A24
S2140092801A1C0123134047D03B1C2F3304221A70AC
S214009290244B01221A707B6A5A78234B9A717B6A98
S2140092A09A78214BDA717B6ADA781F4B1A727B6ADE
S2140092B01A791D4B5A721C4B07229A721A4B282297
S2140092C01A70796A3B1C18331B783A1C1432081C37
S2140092D0111C1A1C07F0ACFE3B1C14331A88124BE8
S2140092E05A803B1C14339A780F4B5A703B1C14332D
S2140092F0DB781A1C0C4B9A800B4BA022DA727B6A26
S2140093001B7A1A1C0423134006D1074BDB7A102263
S2140093101343DAB2044BDA72C546BD460CB004BC41
S2140093209046F0BD90F3FF1F18F1FF1F80B586B082
S21400933000AFF860B960FB1D1A703B1C16330022A4
S2140093401A703B1C173300221A700DE03B1C1733B3
S2140093501B78BA68D31800221A703B1C17331A7889
S2140093603B1C173301321A70FB685B783A1C1732C5
S21400937012789A42EAD3BA68FB68101C191C06F0E9
S214009380CFFE031C1A1C044B1A70034B1B78181CC8
S214009390BD4606B080BDC0469CF3FF1F80B58EB0AC
S2140093A000AF3A1C0B4B111C1A1C3823081C111C4E
S2140093B01A1C0AF0A9FC3B1C181C06F037FA031C02
S2140093C0002B01D0012300E00023181CBD460EB080
S2140093D080BDC046BC400100F0B593B000AFF86158
S2140093E06B461E1C3A1C3832544B111C1A1C0223A6
S2140093F0081C111C1A1C0AF087FC3A1C3432504B0D
S214009400111C1A1C0423081C111C1A1C0AF07CFCD4
S2140094103B1C473304221A703B1C283300221A6078
S21400942000225A6000229A603B1C283313221A70CE
S2140094303B1C283308225A703B1C283340229A7063
S2140094403B1C283307225A713B1C2833AA229A71E8
S2140094503B1C28335B781A1C013A3A643B610022B5
S2140094607A6139694A0F7969C900F960F968114368
S214009470F9603A69D2001C1C0022151C620FE90034
S2140094807960796811437960E2000733DB08DB0016
S2140094906946C91A8D466B460033FB63FB6B3C1C62
S2140094A047343A1C2832101C191C0022FFF73EFFD6
S2140094B0031C23703B1C47331B78002B3AD13B1C04
S2140094C0473304221A701F4B01221A70FB6B5A781E
S2140094D01D4B9A71FB6B9A781B4BDA71FB6BDA7833
S2140094E0194B1A72FB6B1A79174B5A72164B0822D5
S2140094F09A72154B32221A70F96B3B1C28331B7874
S2140095003A1C2432081C111C1A1C07F091FD3B1C47
S21400951024331A880C4B5A803B1C24339A780A4B07
S2140095205A703B1C2433DB781A1C074B9A80064B78
S2140095308022DA72B546BD4613B0F0BDF440010095
S214009540F840010090F3FF1F18F1FF1F80B58EB0A2
S21400955000AF3A1C0B4B111C1A1C3823081C111C9C
S2140095601A1C0AF0D1FB3B1C181C06F05FF9031C02
S214009570002B01D0012300E00023181CBD460EB0CE
S21400958080BDC046FC400100F0B5474680B48CB0B4
S21400959000AFF86068468046381C2F300422944698
S2140095A063460370381C18300024A44662460260E6
S2140095B000239C46644644600022944663468360CB
S2140095C0381C18301524A44662460270381C183021
S2140095D006239C4664464470381C1830262294465F
S2140095E063468370381C18308824A4466246C270CE
S2140095F0381C183001239C4664460471381C183009
S214009600407884460122524294446346BB62011C61
S2140096100024A44662464B0F9C46D4007C606346FA
S2140096207C6823437B60CB00031C0022141C5A0F6B
S214009630E6001643DD00031C0733DB08DB006C4640
S214009640E41AA5466B4600337B627B6A3C1C2F34CB
S2140096503A1C1832101C191C0022FFF767FE031C68
S21400966023703B1C2F331B78002B3DD13B1C2F3324
S21400967004221A707B6A1B78082B35D11D4B0122F9
S2140096801A701D4B00229A717B6A5A781A4BDA714F
S2140096907B6A9A78184B1A727B6ADA78164B5A727B
S2140096A0154B06229A72144B00221A70796A3B1CDC
S2140096B018331B783A1C1432081C111C1A1C07F0AD
S2140096C0B7FC3B1C14331A880B4B5A803B1C1433D4
S2140096D09A78094B5A703B1C1433DB781A1C064BDD
S2140096E09A80054B0022DA72C546BD460CB004BC13
S2140096F09046F0BD90F3FF1F18F1FF1F80B598B09D
S21400970000AF3A1D0B4B111C1A1C5A23081C111CC7
S2140097101A1C0AF0F9FA3B1D181C06F087F8031C01
S214009720002B01D0012300E00023181CBD4618B012
S21400973080BDC04634410100F0B5474680B48CB0C9
S21400974000AFF86068468046381C2F3004229446E6
S21400975063460370381C18300024A4466246026034
S21400976000239C4664464460002294466346836019
S214009770381C18307324A44662460270381C183011
S21400978008239C4664464470381C18303822944699
S21400979063468370381C18300124A4466246027162
S2140097A0381C18304078844601235B429C4464464B
S2140097B0BC62011C00239C4662464C0FA446D300A4
S2140097C07B6064467B681C437C60CC00031C0022E4
S2140097D0141C5A0FE6001643DD00031C0733DB0893
S2140097E0DB006A46D21A95466B4600337B627B6A7C
S2140097F03C1C2F343A1C1832101C191C0022FFF790
S21400980095FD031C23703B1C2F331B78002B33D194
S2140098103B1C2F3304221A701A4B01221A707B6AE3
S2140098201A78194BDA717B6A5A78174B1A727B6A68
S2140098309A78154B5A72144B06229A72124B3222A1
S2140098401A70796A3B1C18331B783A1C1432081CB1
S214009850111C1A1C07F0ECFB3B1C14331A880A4B2D
S2140098605A803B1C14339A78074B5A703B1C1433AF
S214009870DB781A1C044B9A80C546BD460CB004BC67
S2140098809046F0BD90F3FF1F18F1FF1F80B590B013
S21400989000AF3A1C0B4B111C1A1C3E23081C111C53
S2140098A01A1C0AF031FA3B1C181C05F0BFFF031CFB
S2140098B0002B01D0012300E00023181CBD4610B089
S2140098C080BDC04690410100F0B593B000AFF8618E
S2140098D06B461E1C3A1C38325B4B111C1A1C0223AA
S2140098E0081C111C1A1C0AF00FFA3A1C3432574B8B
S2140098F0111C1A1C0423081C111C1A1C0AF004FA5A
S2140099003B1C473304221A703B1C283300221A6083
S21400991000225A6000229A603B1C283316221A70D6
S2140099203B1C28330A225A703B1C28334E229A705E
S2140099303B1C28338022DA703B1C283301221A7124
S2140099403B1C28335B781A1C013A3A643B610022C0
S2140099507A6139694A0F7969C900F960F968114373
S214009960F9603A69D2001C1C0022151C620FE9003F
S2140099707960796811437960E2000733DB08DB0021
S2140099806946C91A8D466B460033FB63FB6B3C1C6D
S21400999047343A1C2832101C191C0422FFF7C6FC58
S2140099A0031C23703B1C47331B78002B47D13B1C02
S2140099B0473304221A70264B01221A70FB6B1A7862
S2140099C0244B9A71FB6B5A78224BDA71FB6B9A78B0
S2140099D0204B1A72FB6BDA781E4B5A721D4B08220C
S2140099E09A721C4B32221A70F96B3B1C28331B7878
S2140099F03A1C2432081C111C1A1C07F019FB3B1CCD
S214009A0024331A88134B5A803B1C24339A78114B04
S214009A105A703B1C2433DB781A1C0E4B9A800D4B75
S214009A20A022DA72FB6B1B791A1C0823134006D19E
S214009A30084BDB7A10221343DAB2064BDA72B546CD
S214009A40BD4613B0F0BDC046D0410100D441010070
S214009A5090F3FF1F18F1FF1F80B590B000AF3A1CBF
S214009A600B4B111C1A1C3E23081C111C1A1C0AF056
S214009A704BF93B1C181C05F0D9FE031C002B01D02B
S214009A80012300E00023181CBD4610B080BDC04670
S214009A90D8410100F0B5474680B48CB000AFF860FE
S214009AA068468046381C2E30002294466346037073
S214009AB0381C2D300424A44662460270381C14302C
S214009AC000239C4664460460002294466346436036
S214009AD00024A44662468260381C14300A239C4642
S214009AE064464470381C1430502294466346837093
S214009AF0381C14303024A4466246C270381C143019
S214009B0013239C4664464471381C143040788446BF
S214009B100122524294446346BB62011C0024A446C0
S214009B2062464B0F9C46D4007C6063467C682343A9
S214009B307B60CB00031C0022141C5A0FE600164361
S214009B40DD00031C0733DB08DB006C46E41AA54681
S214009B506B4600337B627B6A3A1C1432101C191C5D
S214009B600022FFF7E3FB021C3B1C2D331A703B1C44
S214009B702D331B78002B01D000F075FC3B1C2D33D9
S214009B8004221A70E44B01221A70E44B5B78102B07
S214009B9000D03CE1E14B1B79012B00D037E1DF4BD5
S214009BA01B7B002B00D132E1DD4B5A78DD4B1B7856
S214009BB09A4200D82AE1DB4B1B78002B45D1D94BC3
S214009BC01B781A1C7B6A5978D74B9200D154D54B18
S214009BD01B787A6A9278D4499B00CB1801331A70A6
S214009BE0D04B1B787A6AD278CF499B00CB180233C9
S214009BF01A70CC4B1B787A6A1279CB499B00CB182B
S214009C0003331A70002008F091FA08F08FFBC54B5A
S214009C101B780133DAB2C34B1A70C44B181C03F01E
S214009C20D3FFBF4B5A78BF4B1B789A4203D901200B
S214009C3008F07CFAEAE0BE4B00221A70332003F0EC
S214009C4037FB002008F072FAE0E03B1C2F330022BE
S214009C501A7033E03B1C2F331B78B34A9B00D31893
S214009C6001331A787B6A9B789A4220D13B1C2F33AB
S214009C701B78AD4A9B00D31802331A787B6ADB78D0
S214009C809A4214D13B1C2F331B78A74A9B00D3184B
S214009C9003331A787B6A1B799A4208D13B1C2E3311
S214009CA0FF221A703B1C2F339E4A12781A703B1CF8
S214009CB02F331A783B1C2F3301321A70994B1B78BE
S214009CC03A1C2F3212789A42C4D33B1C2E331B7890
S214009CD0002B00D09AE0934B1B781A1C7B6A5978AD
S214009CE0914B9200D1548F4B1B787A6A92788E49AA
S214009CF09B00CB1801331A708A4B1B787A6AD2788D
S214009D0089499B00CB1802331A70864B1B787A6AF7
S214009D10127985499B00CB1803331A70002008F08F
S214009D2005FA08F003FB7F4B1B780133DAB27D4B54
S214009D301A707E4B181C03F047FF794B5A78794B04
S214009D401B789A4203D9012008F0F0F95EE03B1C2C
S214009D502F3300221A7042E03B1C2F331A783B1C2C
S214009D602F331978704B8900C95C724B9200D1541E
S214009D703B1C2F331B783A1C2F3212786A4992000C
S214009D808A18013212786B499B00CB1801331A707F
S214009D903B1C2F331B783A1C2F32127862499200F4
S214009DA08A180232127863499B00CB1802331A7065
S214009DB03B1C2F331B783A1C2F3212785A499200DC
S214009DC08A18033212785B499B00CB1803331A704B
S214009DD03B1C2F331A783B1C2F3301321A70504B22
S214009DE05B783A1C2F3212789A42B5D3504B002239
S214009DF01A70514B1A78802149420A431A70332050
S214009E0003F056FA002008F091F92CE32BE3444BBC
S214009E105B780C2B00D926E3414B5B78012B00D0F6
S214009E20F2E07B6A1B78012B46D17B6A1A78434B9B
S214009E301A707B6A5A78414B5A707B6A9A783F4B05
S214009E409A707B6ADA783D4BDA707B6A1A793B4BFC
S214009E501A717B6A5A79394B5A717B6A9A79374BF1
S214009E609A717B6ADA79354BDA717B6A1A7A334BE8
S214009E701A722C4B1B782C4A9B00D31802331A7884
S214009E807B6ADB789A4200D0EDE2264B1B78264AA6
S214009E909B00D31803331A787B6A1B799A4200D04A
S214009EA0E1E2002008F042F9204B181C03F08CFE7B
S214009EB0022008F03BF9D6E27B6A1B78022B12D10F
S214009EC07B6A1A781D4B1A707B6A9A79144B9A71C2
S214009ED0002008F02BF9154B181C03F075FE032024
S214009EE008F024F9BFE27B6A1B78032B28D17B6A33
S214009EF01A78124B1A707B6ADA79094B1A700020AE
S214009F0008F014F9332009F03DF8332003F0D0F9B7
S214009F1008F05AF9A7E2C04690F3FF1FE4F0FF1FCF
S214009F2000F1FF1FDCF0FF1F9CF4FF1F00E1F505AA
S214009F30D9F0FF1FD0F4FF1F8CF3FF1F08F1FF1F9F
S214009F407B6A1B78052B4AD17B6A1A78DC4B1A7021
S214009F507B6A5B791A06DB4B1A607B6A9B791A046C
S214009F60D84B1B681A43D74B1A607B6ADB791A02F8
S214009F70D44B1B681A43D34B1A607B6A1B7A1A1C95
S214009F80D04B1B681A43CF4B1A60002008F0CEF85F
S214009F90332008F0F7FF332003F08AF908F014F9AD
S214009FA0C94B1B78042B0CD1C64B1A68C74B9A4278
S214009FB014D1C74B181C03F007FE072008F0B6F8AC
S214009FC051E2C04B1A68C34B9A4207D1C04B181CCB
S214009FD003F0FAFD072008F0A9F844E243E27B6AA2
S214009FE01B78062B00D03EE27B6A1A78B44B1A70B8
S214009FF0002008F09BF8002008F0C4FF08F0E4F802
S21400A000332003F055F92EE27B6A1B78012B00D033
S21400A010D5E0AD4BDB79012B00D024E27B6A1A78C1
S21400A020A74B1A70A84B5A78AB4B1B789A4200D8AD
S21400A030BBE03B1C2F3300221A7049E03B1C2F3339
S21400A0401B78A64A9B00D31802331A787B6ADB7803
S21400A0509A4236D13B1C2F331B78A04A9B00D3185C
S21400A06003331A787B6A1B799A422AD13B1C2E331B
S21400A070FF221A703B1C2F331A78984B920001214E
S21400A080D1543B1C2F331B78944A9B00D3180133C2
S21400A09001221A703B1C2F331B78904A9B00D31862
S21400A0A0023301221A703B1C2F331B788B4A9B000D
S21400A0B0D318033301221A703B1C2F33824A52787E
S21400A0C01A703B1C2F331A783B1C2F3301321A7040
S21400A0D07D4B5B783A1C2F3212789A42AED33B1CEB
S21400A0E02E331B78FF2B00D0BDE17B4B1B78013352
S21400A0F0DAB2794B1A70744B5A78774B1B789A42BF
S21400A10000D9B0E13B1C2F3300221A7042E03B1C02
S21400A1102F331A783B1C2F331978714B8900C95C92
S21400A1206E4B9200D1543B1C2F331B783A1C2F32B7
S21400A13012786B4992008A180132127867499B00A0
S21400A140CB1801331A703B1C2F331B783A1C2F3266
S21400A1501278634992008A18023212785F499B008F
S21400A160CB1802331A703B1C2F331B783A1C2F3245
S21400A17012785B4992008A180332127857499B007E
S21400A180CB1803331A703B1C2F331A783B1C2F3323
S21400A19001321A704C4B5B783A1C2F3212789A4276
S21400A1A0B5D3504B00221A705DE1474B0222DA719C
S21400A1B04C4B00221A70022007F0B8FF53E17B6A6E
S21400A1C01B78022B39D1404BDB79022B34D17B6ACA
S21400A1D01A783B4B1A70404B1B78414A9B00D318A9
S21400A1E002331A787B6ADB789A4225D13A4B1B7881
S21400A1F03B4A9B00D31803331A787B6A1B799A4232
S21400A2001AD1002007F092FF334B1B78002B09D1A0
S21400A2102D4B0322DA71334B00221A70032007F00D
S21400A22085FF09E0022007F081FF2B4B1B78013BDE
S21400A230DAB2294B1A7016E115E17B6A1B78032BFC
S21400A24052D1214BDB79032B38D17B6A1A781C4B11
S21400A2501A70214B1B78224A9B00D31802331A78B7
S21400A2607B6ADB789A4229D11B4B1B781C4A9B00E1
S21400A270D31803331A787B6A1B799A421ED10020C2
S21400A28007F054FF144B1B780133DAB2124B1A70E6
S21400A2900D4B5A78104B1B789A4203D9032007F0CF
S21400A2A045FF0BE0084B0422DA71002007F03EFF62
S21400A2B0054B02221A7007F087FFD4E0D3E0C046B1
S21400A2C008F1FF1F5CF3FF1F00F1FF1FFF070000F0
S21400A2D000E1F505FFFFFF7FDCF0FF1FD0F4FF1F56
S21400A2E09CF4FF1FD9F0FF1F7B6A1B78052B00D05C
S21400A2F076E0604BDB79052B71D17B6A1A785E4B72
S21400A3001A705E4B1B785E4A9B00D31802331A788D
S21400A3107B6ADB789A4262D1584B1B78584A9B007E
S21400A320D31803331A787B6A1B799A4257D17B6A13
S21400A3305B791B063B627B6A9B791B043A6A134374
S21400A3403B627B6ADB791B023A6A13433B627B6A99
S21400A3501B7A3A6A13433B62484B1B781A1C454BE0
S21400A3605B78013B9A4203D1464B3A6A1A6005E095
S21400A370444B1B683A6A1A40424B1A60002007F0AA
S21400A380D5FE3E4B1B78002B1CD13A4B0622DA71C9
S21400A3903D4B181C03F018FC3A4B1A683B4B9A428C
S21400A3A009D1364B00221A70394B00221A7007204A
S21400A3B007F0BCFE03E02F4B5A78304B1A7007F0BC
S21400A3C003FF0CE0324B00221A70052007F0AEFEA9
S21400A3D02A4B1B78013BDAB2284B1A7043E042E066
S21400A3E07B6A1B78062B3ED1224BDB79062B3AD1B3
S21400A3F07B6A1A78204B1A70204B1B78204A9B00E9
S21400A400D31802331A787B6ADB789A422BD11B4B1F
S21400A4101B781B4A9B00D31803331A787B6A1B7978
S21400A4209A4220D1002007F081FE144B1B7801339E
S21400A430DAB2124B1A700F4B5A78104B1B789A42AE
S21400A44006D9134B00221A70072007F06FFE0AE0A9
S21400A450002007F06BFE074B0722DA7107F0B4FE08
S21400A460064B00221A70C546BD460CB004BC90468A
S21400A470F0BDC04600F1FF1F08F1FF1FDCF0FF1F14
S21400A4809CF4FF1F5CF3FF1F409C0000FFFFFF7F54
S21400A490D9F0FF1F80B590B000AF3A1D0B4B111CD2
S21400A4A01A1C3C23081C111C1A1C09F02DFC3B1D11
S21400A4B0181C05F0BBF9031C002B01D0012300E09B
S21400A4C00023181CBD4610B080BDC04618420100CF
S21400A4D0F0B593B000AFF8616B461E1C3A1C3832DC
S21400A4E0584B111C1A1C0223081C111C1A1C09F0BC
S21400A4F00BFC3A1C3432544B111C1A1C0423081C47
S21400A500111C1A1C09F000FC3B1C473304221A706D
S21400A5103B1C283300221A6000225A6000229A60F0
S21400A5203B1C283319221A703B1C283309225A7008
S21400A5303B1C283348229A703B1C28338022DA7052
S21400A5403B1C28335B781A1C013A3A643B610022B4
S21400A5507A6139694A0F7969C900F960F968114367
S21400A560F9603A69D2001C1C0022151C620FE90033
S21400A5707960796811437960E2000733DB08DB0015
S21400A5806946C91A8D466B460033FB63FB6B3C1C61
S21400A59047343A1C2832101C191C0422FEF7C6FE4B
S21400A5A0031C23703B1C47331B78002B46D13B1CF7
S21400A5B0473304221A70254B01221A70244B0022BE
S21400A5C09A71FB6B1A78224BDA71FB6B5A78204B28
S21400A5D01A72FB6B9A781E4B5A721D4B06229A72A1
S21400A5E01B4B32221A70F96B3B1C28331B783A1C23
S21400A5F02432081C111C1A1C06F01AFD3B1C2433BE
S21400A6001A88134B5A803B1C24339A78104B5A7086
S21400A6103B1C2433DB781A1C0D4B9A800C4BA02273
S21400A620DA72FB6BDB781A1C0823134006D1084B42
S21400A630DB7A10221343DAB2054BDA72B546BD4612
S21400A64013B0F0BD544201005842010090F3FF1FC2
S21400A65018F1FF1F80B590B000AF3A1D0B4B111CD0
S21400A6601A1C3C23081C111C1A1C09F04DFB3B1D30
S21400A670181C05F0DBF8031C002B01D0012300E0BA
S21400A6800023181CBD4610B080BDC0465C420100C9
S21400A690F0B593B000AFF8616B461E1C3A1C38321A
S21400A6A0584B111C1A1C0223081C111C1A1C09F0FA
S21400A6B02BFB3A1C3432544B111C1A1C0423081C66
S21400A6C0111C1A1C09F020FB3B1C473304221A708D
S21400A6D03B1C283300221A6000225A6000229A602F
S21400A6E03B1C28331A221A703B1C283309225A7046
S21400A6F03B1C283348229A703B1C283307225A7189
S21400A7003B1C28335B781A1C013A3A643B610022F2
S21400A7107A6139694A0F7969C900F960F9681143A5
S21400A720F9603A69D2001C1C0022151C620FE90071
S21400A7307960796811437960E2000733DB08DB0053
S21400A7406946C91A8D466B460033FB63FB6B3C1C9F
S21400A75047343A1C2832101C191C0422FEF7E6FD6A
S21400A760031C23703B1C47331B78002B46D13B1C35
S21400A770473304221A70254B01221A70244B0022FC
S21400A7809A71FB6B5A79224BDA71FB6B1A79204B64
S21400A7901A72FB6BDA781E4B5A721D4B06229A729F
S21400A7A01B4B1E221A70F96B3B1C28331B783A1C75
S21400A7B02432081C111C1A1C06F03AFC3B1C2433DD
S21400A7C01A88134B5A803B1C24339A78104B5A70C5
S21400A7D03B1C2433DB781A1C0D4B9A800C4BA022B2
S21400A7E0DA72FB6B9B78DBB25BB2002B06DB084BA6
S21400A7F0DB7A10221343DAB2054BDA72B546BD4651
S21400A80013B0F0BD984201009C42010090F3FF1F78
S21400A81018F1FF1F80B590B000AF3A1D0B4B111C0E
S21400A8201A1C3C23081C111C1A1C09F06DFA3B1D4F
S21400A830181C04F0FBFF031C002B01D0012300E0D2
S21400A8400023181CBD4610B080BDC046A0420100C3
S21400A850F0B593B000AFF8616B461E1C3A1C383258
S21400A8605D4B111C1A1C0223081C111C1A1C09F033
S21400A8704BFA3A1C3432594B111C1A1C0423081C80
S21400A880111C1A1C09F040FA3B1C473304221A70AC
S21400A8903B1C283300221A6000225A6000229A606D
S21400A8A03B1C28331D221A703B1C28330B225A707F
S21400A8B03B1C283358229A703B1C28332622DA7019
S21400A8C03B1C28332F225A713B1C2833AA229A712C
S21400A8D03B1C28335B781A1C013A3A643B61002221
S21400A8E07A6139694A0F7969C900F960F9681143D4
S21400A8F0F9603A69D2001C1C0022151C620FE900A0
S21400A9007960796811437960E2000733DB08DB0081
S21400A9106946C91A8D466B460033FB63FB6B3C1CCD
S21400A92047343A1C2832101C191C0722FEF7FEFC7E
S21400A930031C23703B1C47331B78002B47D13B1C62
S21400A940473304221A70264B01221A70FB6B5A7882
S21400A950244B9A71FB6B9A78224BDA71FB6BDA7890
S21400A960204B1A72FB6B1A791E4B5A721D4B08222B
S21400A9709A721C4B34221A70F96B3B1C28331B78D6
S21400A9803A1C2432081C111C1A1C06F051FB3B1CF6
S21400A99024331A88134B5A803B1C24339A78114B65
S21400A9A05A703B1C2433DB781A1C0E4B9A800D4BD6
S21400A9B0A022DA72FB6B5B7A1A1C0823134006D1BE
S21400A9C0084BDB7A10221343DAB2064BDA72B5462E
S21400A9D0BD4613B0F0BDC046DC420100E0420100B7
S21400A9E090F3FF1F18F1FF1F80B58EB000AF3A1C22
S21400A9F00B4B111C1A1C3823081C111C1A1C09F0BE
S21400AA0083F93B1C181C04F011FF031C002B01D01B
S21400AA10012300E00023181CBD460EB080BDC046D2
S21400AA20E4420100F0B5474680B48CB000AFF86051
S21400AA3068468046381C2F300422944663460370CE
S21400AA40381C18300024A4466246026000239C4648
S21400AA50644644600022944663468360381C18307F
S21400AA601E24A44662460270381C183007239C46F3
S21400AA7064464470381C18302E2294466346837011
S21400AA80381C18300724A44662464271381C183019
S21400AA904078844601235B429C446446BC62011CA9
S21400AAA000239C4662464C0FA446D3007B60644657
S21400AAB07B681C437C60CC00031C0022141C5A0FCD
S21400AAC0E6001643DD00031C0733DB08DB006A469E
S21400AAD0D21A95466B4600337B627B6A3C1C2F3449
S21400AAE03A1C1832101C191C0022FEF71FFC031C0F
S21400AAF023703B1C2F331B78002B3DD13B1C2F3380
S21400AB0004221A707B6A1B78082B35D11D4B012254
S21400AB101A701D4B00229A717B6A5A781A4BDA71AA
S21400AB207B6A9A78184B1A727B6ADA78164B5A72D6
S21400AB30154B06229A72144B32221A70796A3B1C05
S21400AB4018331B783A1C1432081C111C1A1C06F009
S21400AB506FFA3B1C14331A880B4B5A803B1C143379
S21400AB609A78094B5A703B1C1433DB781A1C064B38
S21400AB709A80054B8022DA72C546BD460CB004BCEE
S21400AB809046F0BD90F3FF1F18F1FF1F80B590B000
S21400AB9000AF3A1C0B4B111C1A1C3E23081C111C40
S21400ABA01A1C09F0B1F83B1C181C04F03FFE031CED
S21400ABB0002B01D0012300E00023181CBD4610B076
S21400ABC080BDC0461C430100F0B5474680B48CB03B
S21400ABD000AFF86068468046381C2F300422944642
S21400ABE063460370381C18300024A4466246026090
S21400ABF000239C4664464460002294466346836075
S21400AC00381C18301F24A44662460270381C1830C0
S21400AC1007239C4664464470381C183036229446F7
S21400AC2063468370381C18300724A4466246427177
S21400AC30381C18304078844601235B429C446446A6
S21400AC40BC62011C00239C4662464C0FA446D300FF
S21400AC507B6064467B681C437C60CC00031C00223F
S21400AC60141C5A0FE6001643DD00031C0733DB08EE
S21400AC70DB006A46D21A95466B4600337B627B6AD7
S21400AC803C1C2F343A1C1832101C191C0022FEF7EC
S21400AC904DFB031C23703B1C2F331B78002B39D134
S21400ACA03B1C2F3304221A701D4B01221A701D4BB9
S21400ACB000229A717B6A5A781A4BDA717B6A9A7804
S21400ACC0184B1A727B6ADA78164B5A72154B0622A4
S21400ACD09A72144B32221A70796A3B1C18331B780E
S21400ACE03A1C1432081C111C1A1C06F0A1F93B1C55
S21400ACF014331A880B4B5A803B1C14339A78094B32
S21400AD005A703B1C1433DB781A1C064B9A80054B92
S21400AD108022DA72C546BD460CB004BC9046F0BD33
S21400AD2090F3FF1F18F1FF1F80B590B000AF3A1DDB
S21400AD300B4B111C1A1C3C23081C111C1A1C08F077
S21400AD40E3FF3B1D181C04F071FD031C002B01D013
S21400AD50012300E00023181CBD4610B080BDC0468D
S21400AD605C430100F0B5474680B48CB000AFF86095
S21400AD7068468046381C2F3004229446634603708B
S21400AD80381C18300024A4466246026000239C4605
S21400AD90644644600022944663468360381C18303C
S21400ADA03A24A44662460270381C183009239C4692
S21400ADB064464470381C18304822944663468370B4
S21400ADC0381C18304078844601246442A444624605
S21400ADD0BA62011C00239C4662464C0FA446D30070
S21400ADE07B6064467B681C437C60CC00031C0022AE
S21400ADF0141C5A0FE6001643DD00031C0733DB085D
S21400AE00DB006A46D21A95466B4600337B627B6A45
S21400AE103A1C1832101C191C0022FEF787FA021C76
S21400AE203B1C2F331A703B1C2F331B78002B3AD158
S21400AE303B1C2F3304221A701E4B01221A707B6AA9
S21400AE401A781D4B9A717B6A5A781B4BDA717B6AAB
S21400AE509A78194B1A727B6ADA78174B5A72164B25
S21400AE6008229A72144B32221A70796A3B1C1833E5
S21400AE701B783A1C1432081C111C1A1C06F0D8F851
S21400AE803B1C14331A880C4B5A803B1C14339A789C
S21400AE90094B5A703B1C1433DB781A1C064B9A80FD
S21400AEA0054B8022DA72C546BD460CB004BC9046FF
S21400AEB0F0BDC04690F3FF1F18F1FF1F80B58EB09F
S21400AEC000AF3A1D0B4B111C1A1C3223081C111C18
S21400AED01A1C08F019FF3B1D181C04F0A7FC031CE5
S21400AEE0002B01D0012300E00023181CBD460EB045
S21400AEF080BDC04698430100F0B5474680B48CB08C
S21400AF0000AFF86068468046381C2F30042294460E
S21400AF1063460370381C18300024A446624602605C
S21400AF2000239C4664464460002294466346836041
S21400AF30381C18302024A44662460270381C18308C
S21400AF4008239C4664464470381C18303C229446BD
S21400AF5063468370381C18300724A4466246427144
S21400AF60381C18304078844601235B429C44644673
S21400AF70BC62011C00239C4662464C0FA446D300CC
S21400AF807B6064467B681C437C60CC00031C00220C
S21400AF90141C5A0FE6001643DD00031C0733DB08BB
S21400AFA0DB006A46D21A95466B4600337B627B6AA4
S21400AFB03C1C2F343A1C1832101C191C0022FEF7B9
S21400AFC0B5F9031C23703B1C2F331B78002B50D184
S21400AFD03B1C2F3304221A707B6A1B781A1C03232F
S21400AFE0134046D1264B01221A707B6A5A780F23EB
S21400AFF01340DAB2234B9A717B6A9A78214BDA7146
S21400B0007B6ADA781F4B1A727B6A1A791D4B5A7262
S21400B0101C4B07229A721B4B32221A70796A3B1C11
S21400B02018331B783A1C1432081C111C1A1C05F025
S21400B030FFFF3B1C14331A88124B5A803B1C1433F8
S21400B0409A78104B5A703B1C1433DB781A1C0D4B45
S21400B0509A800C4BA022DA727B6A1B781A1C082393
S21400B060134006D1074BDB7A10221343DAB2054BA6
S21400B070DA72C546BD460CB004BC9046F0BDC0466C
S21400B08090F3FF1F18F1FF1F80B58EB000AF3A1C7B
S21400B0900B4B111C1A1C3823081C111C1A1C08F018
S21400B0A033FE3B1C181C04F0C1FB031C002B01D014
S21400B0B0012300E00023181CBD460EB080BDC0462C
S21400B0C0CC430100F0B5474680B48CB000AFF860C2
S21400B0D068468046381C2F30042294466346037028
S21400B0E0381C18300024A4466246026000239C46A2
S21400B0F0644644600022944663468360381C1830D9
S21400B1002224A44662460270381C18300A239C4645
S21400B11064464470381C1830502294466346837048
S21400B120381C18304078844601246442A4446246A1
S21400B130BA62011C00239C4662464C0FA446D3000C
S21400B1407B6064467B681C437C60CC00031C00224A
S21400B150141C5A0FE6001643DD00031C0733DB08F9
S21400B160DB006A46D21A95466B4600337B627B6AE2
S21400B1703C1C2F343A1C1832101C191C0422FEF7F3
S21400B180D5F8031C23703B1C2F331B78002B45D1AE
S21400B1903B1C2F3304221A70234B01221A707B6A41
S21400B1A0DA78224B9A717B6A1A79204BDA717B6ABD
S21400B1B05A791E4B1A727B6A9A791C4B5A721B4B31
S21400B1C008229A72194B3C221A70796A3B1C183373
S21400B1D01B783A1C1432081C111C1A1C05F028FF98
S21400B1E03B1C14331A88114B5A803B1C14339A7834
S21400B1F00E4B5A703B1C1433DB781A1C0B4B9A8090
S21400B2000A4BA022DA72094B9B88002B06D1074B0B
S21400B210DB7A10221343DAB2044BDA72C546BD4617
S21400B2200CB004BC9046F0BD90F3FF1F18F1FF1F52
S21400B23080B590B000AF3A1C0B4B111C1A1C3E2375
S21400B240081C111C1A1C08F05FFD3B1C181C04F09F
S21400B250EDFA031C002B01D0012300E00023181C8C
S21400B260BD4610B080BDC04604440100F0B593B0A2
S21400B27000AFF8616B461E1C3A1C38325C4B111C42
S21400B2801A1C0223081C111C1A1C08F03DFD3A1C4F
S21400B2903432584B111C1A1C0423081C111C1A1C8F
S21400B2A008F032FD3B1C473304221A703B1C28333F
S21400B2B000221A6000225A6000229A603B1C283343
S21400B2C02A221A703B1C283309225A703B1C28334A
S21400B2D048229A703B1C28333022DA703B1C2833F5
S21400B2E007225A713B1C28335B781A1C013A3A64D1
S21400B2F03B6100227A6139694A0F7969C900F960B1
S21400B300F9681143F9603A69D2001C1C0022151C2A
S21400B310620FE9007960796811437960E2000733CB
S21400B320DB08DB006946C91A8D466B460033FB63B3
S21400B330FB6B3C1C47343A1C2832101C191C00229C
S21400B340FDF7F4FF031C23703B1C47331B78002BD0
S21400B3504AD13B1C473304221A70274B01221A702D
S21400B360FB6B9A790F231340DAB2244B9A71FB6B6E
S21400B3705A79224BDA71FB6B1A79204B1A72FB6BE7
S21400B380DA781E4B5A721D4B07229A721B4B1E22EE
S21400B3901A70F96B3B1C28331B783A1C2432081CA5
S21400B3A0111C1A1C05F044FE3B1C24331A88134B50
S21400B3B05A803B1C24339A78104B5A703B1C24331B
S21400B3C0DB781A1C0D4B9A800C4BA022DA72FB6BB2
S21400B3D09B78DBB25BB2002B06DB084BDB7A1022D5
S21400B3E01343DAB2054BDA72B546BD4613B0F0BD6C
S21400B3F0444401004844010090F3FF1F18F1FF1F6A
S21400B40080B590B000AF3A1C0B4B111C1A1C4023A1
S21400B410081C111C1A1C08F077FC3B1C181C04F0B6
S21400B42005FA031C002B01D0012300E00023181CA2
S21400B430BD4610B080BDC0464C440100F0B547463E
S21400B44080B48CB000AFF86068468046381C2F3059
S21400B4500422944663460370381C18300024A44621
S21400B4606246026000239C4664464460002294467E
S21400B47063468360381C18302C24A446624602704B
S21400B480381C18300B239C4664464470381C183011
S21400B4905822944663468370381C18308824A44685
S21400B4A06246C270381C183001239C4664460471FC
S21400B4B0381C18302F22944663464371381C1830C7
S21400B4C0AA24A44662468271381C18304078844606
S21400B4D001235B429C446446BC62011C00239C46DC
S21400B4E062464C0FA446D3007B6064467B681C43D0
S21400B4F07C60CC00031C0022141C5A0FE600164386
S21400B500DD00031C0733DB08DB006A46D21A9546CB
S21400B5106B4600337B627B6A3C1C2F343A1C183225
S21400B520101C191C0022FDF701FF031C23703B1C96
S21400B5302F331B78002B47D13B1C2F3304221A7065
S21400B540244B01221A707B6A5A78234B9A717B6AC5
S21400B5509A78214BDA717B6ADA781F4B1A727B6A0B
S21400B5601A791D4B5A721C4B08229A721A4B3422B7
S21400B5701A70796A3B1C18331B783A1C1432081C64
S21400B580111C1A1C05F054FD3B1C14331A88124B70
S21400B5905A803B1C14339A780F4B5A703B1C14335A
S21400B5A0DB781A1C0C4B9A800B4BA022DA727B6A53
S21400B5B0DB79DBB25BB2002B06DB074BDB7A1022B3
S21400B5C01343DAB2044BDA72C546BD460CB004BC6F
S21400B5D09046F0BD90F3FF1F18F1FF1F80B590B0A6
S21400B5E000AF3A1C0B4B111C1A1C3E23081C111CE6
S21400B5F01A1C08F089FB3B1C181C04F017F9031CE6
S21400B600002B01D0012300E00023181CBD4610B01B
S21400B61080BDC0468C440100F0B5474680B48CB06F
S21400B62000AFF86068468046381C2F3004229446E7
S21400B63063460370381C18300024A4466246026035
S21400B64000239C466446446000229446634683601A
S21400B650381C18302E24A44662460270381C183057
S21400B6600C239C4664464470381C1830602294466E
S21400B67063468370381C18300124A4466246027163
S21400B680381C183007239C4664464471381C183012
S21400B690AA22944663468371381C18304078844644
S21400B6A001246442A4446246BA62011C00239C46FC
S21400B6B062464C0FA446D3007B6064467B681C43FE
S21400B6C07C60CC00031C0022141C5A0FE6001643B4
S21400B6D0DD00031C0733DB08DB006A46D21A9546FA
S21400B6E06B4600337B627B6A3C1C2F343A1C183254
S21400B6F0101C191C0022FDF719FE031C23703B1CAE
S21400B7002F331B78002B47D13B1C2F3304221A7093
S21400B710244B01221A707B6A1A78234B9A717B6A33
S21400B7205A78214BDA717B6A9A781F4B1A727B6AB9
S21400B730DA781D4B5A721C4B08229A721A4B322228
S21400B7401A70796A3B1C18331B783A1C1432081C92
S21400B750111C1A1C05F06CFC3B1C14331A88124B87
S21400B7605A803B1C14339A780F4B5A703B1C143388
S21400B770DB781A1C0C4B9A800B4BA022DA727B6A81
S21400B7801B791A1C0823134006D1074BDB7A1022BC
S21400B7901343DAB2044BDA72C546BD460CB004BC9D
S21400B7A09046F0BD90F3FF1F18F1FF1F80B590B0D4
S21400B7B000AF3A1D0B4B111C1A1C3A23081C111C17
S21400B7C01A1C08F0A1FA3B1D181C04F02FF8031CE5
S21400B7D0002B01D0012300E00023181CBD4610B04A
S21400B7E080BDC046CC440100F0B593B000AFF86110
S21400B7F06B461E1C3A1C3832594B111C1A1C02236D
S21400B800081C111C1A1C08F07FFA3A1C3432554BDF
S21400B810111C1A1C0323081C111C1A1C08F074FAAD
S21400B8203B1C473304221A703B1C283300221A6044
S21400B83000225A6000229A603B1C283338221A7075
S21400B8403B1C283309225A703B1C283348229A7026
S21400B8503B1C283307225A713B1C28335B781A1C82
S21400B860013A3A643B6100227A6139694A0F796984
S21400B870C900F960F9681143F9603A69D2001C1CE6
S21400B8800022151C620FE90079607968114379601F
S21400B890E2000733DB08DB006946C91A8D466B46B3
S21400B8A00033FB63FB6B3C1C47343A1C2832101CED
S21400B8B0191C0022FDF73AFD031C23703B1C47337E
S21400B8C01B78002B47D13B1C473304221A70264BAB
S21400B8D001221A70FB6B5A78244B9A71FB6B9A788C
S21400B8E0224BDA71FB6BDA78204B1A72FB6B1A79F3
S21400B8F01E4B5A721D4B07229A721C4B28221A7036
S21400B900F96B3B1C28331B783A1C2432081C111C8C
S21400B9101A1C05F08DFB3B1C24331A88134B5A80E7
S21400B9203B1C24339A78114B5A703B1C2433DB782B
S21400B9301A1C0E4B9A800D4BA022DA72FB6B1B7AF8
S21400B940DBB25BB2002B06DB084BDB7A102213431C
S21400B950DAB2064BDA72B546BD4613B0F0BDC04645
S21400B960084501000C45010090F3FF1F18F1FF1F6A
S21400B97080B59AB000AF3A1D0B4B111C1A1C6423FD
S21400B980081C111C1A1C08F0BFF93B1D181C03F0FC
S21400B9904DFF031C002B01D0012300E00023181CE0
S21400B9A0BD461AB080BDC04610450100F0B54746FA
S21400B9B080B48CB000AFF86068468046381C2F30E4
S21400B9C00422944663460370381C18300024A446AC
S21400B9D06246026000239C46644644600022944609
S21400B9E063468360381C18306F24A4466246027093
S21400B9F0381C18300C239C4664464470381C18309B
